:1000000035C0000058C0000056C0000054C00000B9
:1000100052C0000050C000004EC000004CC00000A4
:100020004AC0000048C0000046C0000044C00000B4
:1000300042C0000040C000003EC000003CC00000C4
:100040003AC0000038C00000D6C00000FFC0000069
:1000500032C0000030C000002EC000002CC00000E4
:100060002AC0000028C000005F026B0211241FBEDE
:10007000CFEFD8E0DEBFCDBF11E0A0E0B1E0E4EB10
:10008000F7E002C005900D92AE30B107D9F711E04C
:10009000AEE0B1E001C01D92A233B107E1F710E07C
:1000A000CAE6D0E003C02297FE014DD2C836D10780
:1000B000D1F72CD273C3A4CFCF93DF9300D0CDB7A9
:1000C000DEB79A83898389819A81F3D089819A8165
:1000D0004096EFD085EC90E0FC01108284EC90E03B
:1000E00027E6FC01208382EC90E026E0FC012083DF
:1000F00081EC90E028E9FC01208383E290E023E298
:10010000FC01208384E290E024E2FC01208385E26C
:1001100090E020E8FC0120830F900F90DF91CF91B9
:100120000895CF93DF9300D01F92CDB7DEB79A83A7
:1001300089836B836B818EE191E004D181EC90E047
:1001400021EC30E0F90120812062FC0120830F9036
:100150000F900F90DF91CF910895CF93DF9300D050
:10016000CDB7DEB79A8389838EE091E01CD10F90E2
:100170000F90DF91CF910895CF93DF9300D0CDB74B
:10018000DEB79A8389838EE091E03ED10F900F9085
:10019000DF91CF910895CF93DF93CDB7DEB786EC93
:1001A00090E0FC018081682F8EE091E0CBD0DF9160
:1001B000CF9108950F931F93CF93DF93CDB7DEB701
:1001C0008EE191E021D1882341F006EC10E08EE130
:1001D00091E0E9D0F801808309C081EC90E021EC46
:1001E00030E0F90120812F7DFC012083DF91CF9148
:1001F0001F910F9108951F920F9200905F000F9230
:1002000011242F933F934F935F936F937F938F931B
:100210009F93AF93BF93EF93FF93CF93DF93CDB7AC
:10022000DEB7B9DFDF91CF91FF91EF91BF91AF9131
:100230009F918F917F916F915F914F913F912F91FE
:100240000F9000925F000F901F9018951F920F92D1
:1002500000905F000F9211242F933F934F935F9371
:100260006F937F938F939F93AF93BF93EF93FF937E
:10027000CF93DF93CDB7DEB79DDFDF91CF91FF91B5
:10028000EF91BF91AF919F918F917F916F915F910E
:100290004F913F912F910F9000925F000F901F9010
:1002A0001895CF93DF93CDB7DEB77894DF91CF91D8
:1002B0000895CF93DF9300D0CDB7DEB79A838983BB
:1002C00089819A812AE031E0FC0131832083898190
:1002D0009A81FC011586148689819A81FC01178612
:1002E00016860F900F90DF91CF910895CF93DF93F3
:1002F00000D0CDB7DEB79A83898389819A812AE0BD
:1003000031E0FC013183208380E090E0009719F018
:1003100089819A81ECD00F900F90DF91CF91089551
:10032000CF93DF9300D0CDB7DEB79A8389838981DD
:100330009A81DCDF89819A81DAD00F900F90DF916A
:10034000CF910895CF93DF9300D01F92CDB7DEB742
:100350009A8389836B8389819A81FC018485958541
:10036000AC014F5F5F4F29813A81F901558744877E
:1003700029813A81820F931F02962B81FC012083F1
:1003800089819A81FC01848595858A30910529F4BB
:1003900089819A81FC01158614860F900F900F9029
:1003A000DF91CF910895CF93DF9300D01F92CDB707
:1003B000DEB79B838A838A819B81FC018685978532
:1003C000AC014F5F5F4F2A813B81F9015787468718
:1003D0002A813B81820F931F0296FC0180818983D1
:1003E0008A819B81FC01868597858A30910529F455
:1003F0008A819B81FC011786168689810F900F9058
:100400000F90DF91CF910895CF93DF9300D0CDB7B8
:10041000DEB79A83898389819A81FC012485358599
:1004200089819A81FC018685978541E028173907E3
:1004300009F440E0842F0F900F90DF91CF91089541
:10044000CF93DF9300D0CDB7DEB79A8389838981BC
:100450009A8140964BDF89819A8148DF0F900F90F7
:10046000DF91CF910895CF93DF9300D000D0CDB727
:10047000DEB79A8389837C836B8389819A818130FB
:10048000910549F48B819C818F3F2FEF920719F4DE
:100490008EE091E011DE89819A81009749F48B8189
:1004A0009C818F3F2FEF920719F48EE091E0C8DF17
:1004B0000F900F900F900F90DF91CF910895CF93F1
:1004C000DF93CDB7DEB76FEF7FEF81E090E0CBDF5A
:1004D000DF91CF910895CF93DF93CDB7DEB76FEF64
:1004E0007FEF80E090E0BFDFDF91CF910895CF9361
:1004F000DF9300D0CDB7DEB79A83898389819A8153
:10050000BED00F900F90DF91CF910895CF93DF93DE
:10051000CDB7DEB7A0970FB6F894DEBF0FBECDBF44
:10052000CE010196C9DDBDDECE01019625DE882310
:10053000D9F3CE01019611DE682FCE010196F1DDCF
:10054000F3CFEE0FFF1F0590F491E02D0994CF93A8
:10055000DF938230910510F482E090E0E091300169
:10056000F091310120E030E0A0E0B0E0309739F1C7
:100570004081518148175907B8F04817590771F45D
:1005800082819381109729F013969C938E931297F2
:100590002CC0909331018093300127C02115310583
:1005A00031F04217530718F0A901DB0101C0EF0138
:1005B0009A01BD01DF010280F381E02DD7CF211523
:1005C0003105F9F0281B390B2430310580F48A817C
:1005D0009B816115710521F0FB019383828304C027
:1005E0009093310180933001FE01329644C0FE01A8
:1005F000E20FF31F819391932250310939832883AD
:100600003AC020912E0130912F01232B41F42091EB
:1006100002013091030130932F0120932E0120918C
:100620000001309101012115310541F42DB73EB78C
:100630004091040150910501241B350BE0912E01DE
:10064000F0912F01E217F307A0F42E1B3F0B2817A0
:10065000390778F0AC014E5F5F4F2417350748F03B
:100660004E0F5F1F50932F0140932E018193919362
:1006700002C0E0E0F0E0CF01DF91CF910895CF9389
:10068000DF93009709F487C0FC013297138212822E
:10069000C0913001D0913101209781F420813181C6
:1006A000280F391F80912E0190912F0182179307F7
:1006B00079F5F0932F01E0932E016DC0DE0120E06B
:1006C00030E0AE17BF0750F412964D915C9113972E
:1006D0009D014115510509F1DA01F3CFB383A283DE
:1006E00040815181840F951F8A179B0771F48D916A
:1006F0009C911197840F951F029691838083129687
:100700008D919C911397938382832115310529F450
:10071000F0933101E09330013EC0D9011396FC9370
:10072000EE9312974D915D91A40FB51FEA17FB0749
:1007300079F480819181840F951F0296D9011196D9
:100740009C938E938281938113969C938E931297A0
:10075000E0E0F0E08A819B81009719F0FE01EC0156
:10076000F9CFCE01029628813981820F931F209103
:100770002E0130912F012817390769F4309729F499
:10078000109231011092300102C013821282D09374
:100790002F01C0932E01DF91CF91089510E0CAE69A
:1007A000D0E003C0FE01CFDE2296CC36D107D1F7D0
:0407B000F894FFCFEB
:0E07B4000000320120000000000076019001DC
:00000001FF
