:1000000035C000005AC0000058C0000056C00000B3
:1000100054C0000052C0000050C000004EC000009C
:100020004CC000004AC0000048C0000046C00000AC
:1000300044C0000042C0000040C000003EC00000BC
:100040003CC000003AC00000DFC5000006C600004A
:1000500034C0000032C0000030C000002EC00000DC
:100060002CC000002AC000006807740711241FBEBE
:10007000CFEFD8E0DEBFCDBF11E0A0E0B1E0E4E516
:10008000F3E102C005900D92A631B107D9F711E056
:10009000A6E1B1E001C01D92A835B107E1F710E07B
:1000A000CAE6D0E004C02297FE010E946708C83665
:1000B000D107C9F734D70C949E09A2CFEF92FF92D3
:1000C0000F931F937B018C0120E030E040E05FE460
:1000D000D7D287FD0FC0C801B70120E030E040E073
:1000E0005FE483D123D39B01AC01205030404040DA
:1000F000504805C0C801B70119D39B01AC01B90133
:10010000CA011F910F91FF90EF900895A0E0B0E019
:10011000EBE8F0E0A7C7FC01EA018081823008F437
:1001200038C1DB019C91923008F430C1843059F41D
:10013000943009F02EC1918111968C9111979817E6
:1001400009F021C126C1943009F420C19230B1F4E4
:10015000823009F01EC1CA01AF0128E0DA010D901A
:10016000AD01DC010D92CD012150C1F7DB011196EB
:100170008C9111979181892389830AC1823009F476
:1001800005C1C280D380DB0112966D907C901397DD
:1001900024813581468157811496ED90FD900D9113
:1001A0001C911797C601861997095C0197FF04C037
:1001B000AA24BB24A81AB90AB0E2AB16B1040CF009
:1001C00061C0181619066CF5370148010A2C04C0E5
:1001D00096948794779467940A94D2F781E090E09C
:1001E000A0E0B0E00A2C04C0880F991FAA1FBB1F13
:1001F0000A94D2F70197A109B1098E219F21A0236A
:10020000B123EE24FF248701E3940097A105B105F3
:1002100019F4EE24FF248701E628F7280829192974
:100220003CC00097D1F1CA0CDB1C39014A010A2CF1
:1002300004C096948794779467940A94D2F781E0E7
:1002400090E0A0E0B0E00A2C04C0880F991FAA1F1C
:10025000BB1F0A94D2F70197A109B1098223932306
:10026000A423B52321E030E040E050E00097A10551
:10027000B10519F420E030E0A901262937294829E1
:1002800059290BC06C147D0424F4EE24FF2487014B
:1002900004C0630120E030E0A9018181FB0191816C
:1002A000891709F445C0882349F0D801C701821B8A
:1002B000930BA40BB50B9C01AD0104C02E193F0993
:1002C000400B510B57FD04C01982DB82CA820BC060
:1002D00081E08983DB82CA825095409530952195D3
:1002E0003F4F4F4F5F4F2C833D834E835F830DC045
:1002F000880F991FAA1FBB1F8C839D83AE83BF836A
:100300008A819B8101979B838A838C819D81AE81A9
:10031000BF819C01AD0121503040404050402F3FF3
:10032000EFEF3E07EFEF4E07EFE35E0708F30BC07A
:100330008983DB82CA822E0D3F1D401F511F2C83F3
:100340003D834E835F8383E088832C813D814E8192
:100350005F8157FF1DC0DA01C90181709070A070E4
:10036000B0705695479537952795822B932BA42BE4
:10037000B52B8C839D83AE83BF838A819B8101963D
:100380009B838A8305C0E0E0F1E003C0FB0101C06C
:10039000FE01CF01CDB7DEB7EEE080C6A0E2B0E04F
:1003A000E3EDF1E067C669837A838B839C832D83B9
:1003B0003E834F83588789E0E82EF12CEC0EFD1E1A
:1003C000CE010196B701CED28E010F5E1F4FCE0136
:1003D0000596B801C7D2C701B801AE01475E5F4FAD
:1003E00095DEF3D1A096E6E061C6A0E2B0E0EAEFC8
:1003F000F1E040C669837A838B839C832D833E839F
:100400004F8358878E01075F1F4FCE010196B801B9
:10041000A9D291E1E92EF12CEC0EFD1ECE0105963C
:10042000B701A0D28A8991E089278A8BC801B701D8
:10043000AE01475E5F4F6ADEC8D1A096E6E036C6E1
:10044000A0E2B0E0E5E2F2E009C669837A838B833B
:100450009C832D833E834F835887CE010196BE0136
:10046000675F7F4F7FD2CE010596BE016F5E7F4FE3
:1004700079D29985923078F089898230C0F09430B1
:1004800019F4823041F4CBC0843019F4923079F4FD
:10049000C6C0923051F481E02A859A89291709F45F
:1004A00080E08A87CE010996BCC0823051F481E099
:1004B0002A859A89291709F480E08A8BCE01419612
:1004C000B0C06D847E848F849888ED88FE880F8903
:1004D000188DE0E2F0E080E090E0DC01AA24BB248B
:1004E000650120E030E0A901B30161707070611511
:1004F0007105D1F02E0D3F1D401F511F1501260122
:10050000280E391E4A1E5B1E81E090E0A0E0B0E09C
:100510002E153F054007510718F080E090E0DC0100
:10052000820D931DA41DB51DAA0CBB1CCC1CDD1C8B
:1005300017FF09C061E0262E312C412C512CA22836
:10054000B328C428D528319749F0EE0CFF1C001FB2
:10055000111F9694879477946794C6CF6B897C8992
:10056000EB85FC856E0F7F1F6E5F7F4F7C8F6B8FDF
:1005700061E0EA857A89E71709F460E06A8F6B8D9C
:100580007C8D10C0FC01E170F070309729F0569519
:100590004795379527955068B695A7959795879570
:1005A0006F5F7F4FB7FDEECF0CC0880F991FAA1F5A
:1005B000BB1F57FD8160220F331F441F551F615021
:1005C00070408030E0E09E07E0E0AE07E0E4BE0768
:1005D00060F36B8F7C8F6FE7E62EF12C012D112DD0
:1005E000E822F9220A231B2360E4E616F104010540
:1005F000110561F487FD0AC021153105410551053A
:1006000029F0805C9F4FAF4FBF4F80788D8F9E8FBA
:10061000AF8FB8A383E0898FCE01499602C080E0F6
:1006200091E0D3D0A096E2E135C5A8E1B0E0EAE1DF
:10063000F3E020C569837A838B839C832D833E837B
:100640004F8358878E01075F1F4FCE010196B80177
:1006500089D181E1E82EF12CEC0EFD1ECE0105962C
:10066000B70180D18985823038F08989823020F0C5
:10067000C801B701E0D101C08FEF6896E6E016C56A
:10068000A8E1B0E0E5E4F3E0F5C469837A838B8305
:100690009C832D833E834F8358878E01075F1F4FB6
:1006A000CE010196B8015ED181E1E82EF12CEC0E6D
:1006B000FD1ECE010596B70155D18985823038F0EF
:1006C0008989823020F0C801B701B5D101C08FEF10
:1006D0006896E6E0EBC4A8E1B0E0E0E7F3E0CAC466
:1006E00069837A838B839C832D833E834F835887D2
:1006F0008E01075F1F4FCE010196B80133D181E112
:10070000E82EF12CEC0EFD1ECE010596B7012AD184
:100710008985823038F08989823020F0C801B7019C
:100720008AD101C081E06896E6E0C0C4ACE0B0E0E8
:10073000EBE9F3E0A3C469837A838B839C83CE01C6
:100740000196BE016B5F7F4F0DD18D81823081F1AB
:10075000823070F1843021F48E81882369F10AC0DF
:100760002F81388537FD24C06E812F3131053CF053
:10077000662311F120E030E040E050E821C08EE136
:1007800090E0821B930B29853A854B855C8504C0DC
:1007900056954795379527958A95D2F7662381F028
:1007A00050954095309521953F4F4F4F5F4F08C072
:1007B00020E030E0A90104C02FEF3FEF4FEF5FE7EB
:1007C000B901CA012C96E2E075C4EF92FF920F9333
:1007D0001F93CF93DF93FC0124813581468157819C
:1007E00061818081823020F44061EFEFF0E0A3C0AE
:1007F000843009F49BC0823009F492C02115310580
:100800004105510509F48FC00280F381E02D8FEF7F
:10081000E238F8070CF05AC0C2E8DFEFCE1BDF0B5E
:10082000CA31D1056CF579018A010C2E04C01695E8
:100830000795F794E7940A94D2F781E090E0A0E05E
:10084000B0E00C2E04C0880F991FAA1FBB1F0A948A
:10085000D2F70197A109B10982239323A423B523D9
:1008600021E030E040E050E00097A105B10519F427
:1008700020E030E0A9012E293F29402B512B03C055
:1008800020E030E0A901DA01C9018F779070A070F3
:10089000B07080349105A105B10539F427FF09C076
:1008A000205C3F4F4F4F5F4F04C0215C3F4F4F4F85
:1008B0005F4FE1E0F0E0203080E0380780E048075B
:1008C00080E4580728F5E0E0F0E022C0E038F105C8
:1008D0006CF5E158FF4FDA01C9018F779070A07075
:1008E000B07080349105A105B10539F427FF09C026
:1008F000205C3F4F4F4F5F4F04C0215C3F4F4F4F35
:100900005F4F57FF05C05695479537952795319608
:1009100087E056954795379527958A95D1F70BC06F
:10092000E0E0F0E005C0E0E0F0E005C0EFEFF0E06F
:1009300020E030E0A9018E2F879588278795942F96
:100940009F77679566276795E695E22EA92FA82BD6
:10095000FE2FF62B622F732F8A2F9F2FCDB7DEB776
:10096000E6E0A4C3DC01FB012C9111963C911197A8
:1009700012968C911297482F4F7750E0982F991F1D
:100980009927991F13966C911397862F880F892B9F
:1009900090E0661F6627661F6183009739F5211571
:1009A00031054105510511F482E029C082E89FEF2D
:1009B0009383828367E0220F331F441F551F6A957C
:1009C000D1F783E0808309C0220F331F441F551FD6
:1009D00082819381019793838283203080E038075E
:1009E00080E0480780E4580778F320C08F3F9105E6
:1009F00079F4211531054105510519F484E080830E
:100A0000089544FF03C081E0808310C010820EC0AF
:100A10008F5790409383828383E0808387E0220F07
:100A2000331F441F551F8A95D1F7506424833583A3
:100A3000468357830895FC01DB019081923008F4CE
:100A400049C08C91823008F445C0943051F46181E2
:100A50008430B1F511962C91119730E0261B3109A5
:100A600041C0843021F0923041F48230B1F11196CE
:100A70008C9111978823A1F12DC06181823001F101
:100A800011968C9111976817D9F4228133811296AF
:100A90008D919C9113978217930794F0281739072B
:100AA000BCF0248135814681578114968D919D91AA
:100AB0000D90BC91A02D82179307A407B50718F4D9
:100AC000662341F00DC0281739074A075B0728F451
:100AD000662331F021E030E005C020E030E002C0C4
:100AE0002FEF3FEFC9010895DF93CF9300D0CDB72B
:100AF000DEB79A83898389819A81E0D089819A813E
:100B00004F96DCD085EC90E0FC01108284EC90E004
:100B100027E6FC01208382EC90E026E0FC012083A4
:100B200081EC90E028E9FC0120830F900F90CF9199
:100B3000DF910895DF93CF9300D00F92CDB7DEB74A
:100B40009A8389836B8385E391E06B8102D181EC89
:100B500090E021EC30E0F90120812062FC0120834B
:100B60000F900F900F90CF91DF910895DF93CF9367
:100B700000D0CDB7DEB79A83898386E191E01BD19F
:100B80000F900F90CF91DF910895DF93CF9300D016
:100B9000CDB7DEB79A83898386E191E03ED10F908D
:100BA0000F90CF91DF910895DF93CF93CDB7DEB74C
:100BB00086EC90E0FC01208186E191E0622FC9D0B3
:100BC000CF91DF9108950F931F93DF93CF93CDB70C
:100BD000DEB785E391E021D1882341F006EC10E0F7
:100BE00085E391E0E8D0F801808309C081EC90E0D2
:100BF00021EC30E0F90120812F7DFC012083CF9191
:100C0000DF911F910F9108951F920F920FB60F92CF
:100C100011242F933F934F935F936F937F938F9301
:100C20009F93AF93BF93EF93FF93DF93CF93CDB792
:100C3000DEB7BADFCF91DF91FF91EF91BF91AF9116
:100C40009F918F917F916F915F914F913F912F91E4
:100C50000F900FBE0F901F9018951F920F920FB616
:100C60000F9211242F933F934F935F936F937F9332
:100C70008F939F93AF93BF93EF93FF93DF93CF93A4
:100C8000CDB7DEB7A0DFCF91DF91FF91EF91BF919C
:100C9000AF919F918F917F916F915F914F913F9114
:100CA0002F910F900FBE0F901F901895DF93CF9349
:100CB000CDB7DEB77894CF91DF910895DF93CF93CE
:100CC00000D0CDB7DEB79A83898389819A8122E1EA
:100CD00031E0FC013183208389819A81FC01148EEB
:100CE000138E89819A81FC01168E158E0F900F90BC
:100CF000CF91DF910895DF93CF9300D0CDB7DEB7CA
:100D00009A83898389819A8122E131E0FC013183D0
:100D1000208382E090E081709070882319F08981AF
:100D20009A81EED00F900F90CF91DF910895DF93CD
:100D3000CF9300D0CDB7DEB79A83898389819A811A
:100D4000DADF89819A81DCD00F900F90CF91DF910B
:100D50000895DF93CF9300D00F92CDB7DEB79A837B
:100D600089836B8389819A81FC01838D948D29818C
:100D70003A81280F391F2E5F3F4F4B81F901408385
:100D80009C012F5F3F4F89819A81FC01348F238F13
:100D900089819A81FC01838D948D8931910529F493
:100DA00089819A81FC01148E138E0F900F900F9001
:100DB000CF91DF910895DF93CF9300D00F92CDB7FD
:100DC000DEB79B838A838A819B81FC01858D968D0A
:100DD0002A813B81280F391F2E5F3F4FF901208167
:100DE00029839C012F5F3F4F8A819B81FC01368FB5
:100DF000258F8A819B81FC01858D968D8931910596
:100E000029F48A819B81FC01168E158E89810F90B1
:100E10000F900F90CF91DF910895DF93CF9300D083
:100E2000CDB7DEB79A83898389819A81FC01238DAE
:100E3000348D89819A81FC01858D968D41E028173A
:100E4000390709F440E0842F0F900F90CF91DF9184
:100E50000895DF93CF9300D0CDB7DEB79A8389830F
:100E600089819A814F9647DF89819A8144DF0F906B
:100E70000F90CF91DF910895DF93CF9300D000D0F2
:100E8000CDB7DEB79A8389837C836B8389819A810E
:100E90008130910549F48B819C812FEF8F3F920720
:100EA00019F486E191E020DE89819A81009749F466
:100EB0008B819C812FEF8F3F920719F486E191E09F
:100EC000C8DF0F900F900F900F90CF91DF91089592
:100ED000DF93CF93CDB7DEB781E090E06FEF7FEF88
:100EE000CBDFCF91DF910895DF93CF93CDB7DEB7FE
:100EF00080E090E06FEF7FEFBFDFCF91DF9108954B
:100F0000DF93CF9300D0CDB7DEB79A8389838981F1
:100F10009A817BD10F900F90CF91DF9108950F931D
:100F20001F93DF93CF93CDB7DEB7CD54D0400FB62C
:100F3000F894DEBF0FBECDBFCE014096D5DDB6DE44
:100F400001C00000CE01409620DE8823D1F3CE01FF
:100F500040960CDE898380E090E0A0E8BFE38A83BE
:100F60009B83AC83BD836A817B818C819D8120E0E2
:100F700030E04AE755E464DADC01CB018E839F83DD
:100F8000A887B98711E06E817F818885998520E0E7
:100F900030E040E85FE39FDB88230CF010E0112392
:100FA00029F081E090E09B878A8746C011E06E813E
:100FB0007F818885998520E03FEF4FE757E435DB57
:100FC00018160CF010E0112371F16A817B818C817D
:100FD0009D8120E030E040E251E432DADC01CB01D7
:100FE000BC01CD016BD8DC01CB019B878A8712C085
:100FF00080E991E09D878C878C859D858C01C80157
:101000000197F1F78C011D870C878A859B850197D5
:101010009B878A8721E08A859B85009709F420E0D9
:10102000222331F716C06E817F818885998546D845
:10103000DC01CB019B878A878A859B859F878E876A
:101040008E859F858C01C8010197F1F78C011F8760
:101050000E87CE01409669816DDD74CF2F923F924D
:101060004F925F926F927F928F929F92AF92BF92B8
:10107000CF92DF92EF92FF920F931F93CF93DF9364
:10108000CDB7DEB7CA1BDB0B0FB6F894DEBF0FBEC1
:10109000CDBF09942A88398848885F846E847D840E
:1010A0008C849B84AA84B984C884DF80EE80FD8010
:1010B0000C811B81AA81B981CE0FD11D0FB6F89486
:1010C000DEBF0FBECDBFED010895EE0FFF1F0590EF
:1010D000F491E02D0994CF93DF938230910510F4C1
:1010E00082E090E0E0915601F091570140E050E03D
:1010F00020E030E026C06081718168177907E0F058
:101100006817790781F4828193812115310531F0C7
:10111000D90113969C938E9312972BC090935701ED
:101120008093560126C04115510519F064177507C3
:1011300018F4AB01E901DF019F0172816381E72FA0
:10114000F62F3097C1F64115510501F1481B590B97
:101150004430510580F412968D919C9113972097FD
:1011600019F09B838A8304C09093570180935601A2
:10117000FD01329646C0FD01E40FF51F8193919366
:101180004250504011965C934E933BC020915401C5
:10119000309155012115310541F420910A0130911A
:1011A0000B01309355012093540120910C01309193
:1011B0000D012115310541F42DB73EB740910801CD
:1011C00050910901241B350BE0915401F091550118
:1011D000E217F307A0F42E1B3F0B2817390778F00E
:1011E000AC014E5F5F4F2417350748F04E0F5F1F6D
:1011F00050935501409354018193919302C0E0E0D4
:10120000F0E0CF01DF91CF910895CF93DF93009766
:1012100009F491C0FC013297138212826091560149
:10122000709157016115710581F420813181280F7A
:10123000391F80915401909155018217930799F5B8
:10124000F0935501E093540176C0DB0180E090E01B
:1012500002C0CD01D901AE17BF0748F412962D91F7
:101260003C91139721153105A1F7CD0121C0B3831E
:10127000A283EF01499159919E01240F351FA217B6
:10128000B30779F42D913C911197240F351F2E5FF0
:101290003F4F3183208312962D913C9113973383D6
:1012A0002283009729F4F0935701E093560143C03D
:1012B000DC011396FC93EE9312974D915D91A40F70
:1012C000B51FEA17FB0769F420813181240F351F10
:1012D0002E5F3F4FEC0139832883228133813B838A
:1012E0002A83E0E0F0E002C0FB01BC01DB011296C2
:1012F0008D919C9113970097B9F79B012E5F3F4FFB
:101300008D919C911197820F931F409154015091A0
:1013100055014817590779F4309729F4109257016D
:101320001092560102C01382128222503040309334
:10133000550120935401DF91CF91089510E0CAE642
:10134000D0E003C0FE01C3DE2296CC36D107D1F730
:04135000F894FFCF3F
:101354000000000000000000200058010000000010
:0613640000007B06970665
:00000001FF
