:1000000037C000005AC0000058C0000056C00000B1
:1000100054C0000052C0000050C000004EC000009C
:100020004CC000004AC0000048C0000046C00000AC
:1000300044C0000042C0000040C000003EC00000BC
:100040003CC000003AC0000057C200007EC2000061
:1000500034C0000032C0000030C000002EC00000DC
:100060002CC000002AC00000F6010B030202170397
:1000700011241FBECFEFD8E0DEBFCDBF11E0A0E05E
:10008000B1E0E8ECF9E002C005900D92A432B107AE
:10009000D9F711E0A4E2B1E001C01D92AB33B10782
:1000A000E1F710E0CCE6D0E003C02297FE0149D38F
:1000B000C836D107D1F7F4D27BC4A2CFDF93CF9358
:1000C00000D0CDB7DEB79A838983809106019091E5
:1000D00007010F900F90CF91DF910895DF93CF9399
:1000E00000D0CDB7DEB79A83898389819A81FC01DC
:1000F000828193810F900F90CF91DF910895DF93CC
:10010000CF9300D000D0CDB7DEB79A8389837C83AC
:100110006B8389819A812B813C81FC01338322830B
:100120000F900F900F900F90CF91DF910895DF9374
:10013000CF9300D0CDB7DEB79A83898380911A011F
:1001400090911B010F900F90CF91DF910895DF9355
:10015000CF9300D0CDB7DEB79A83898389819A8106
:10016000FC01848195810F900F90CF91DF910895CC
:10017000DF93CF9300D000D0CDB7DEB79A838983C9
:100180007C836B8389819A812B813C81FC0135833F
:1001900024830F900F900F900F90CF91DF910895CF
:1001A000DF93CF9300D0CDB7DEB79A83898389815F
:1001B0009A8165D30F900F90CF91DF910895DF93CF
:1001C000CF9300D0CDB7DEB79A83898389819A8196
:1001D00020E231E0FC01318320830F900F90CF911A
:1001E000DF910895DF93CF9300D0CDB7DEB79A8328
:1001F000898389819A8120E231E0FC013183208367
:1002000080E090E081709070882319F089819A8154
:10021000C7DF0F900F90CF91DF910895DF93CF93B9
:1002200000D0CDB7DEB79A83898389819A81DADFDE
:1002300089819A81B5DF0F900F90CF91DF9108955A
:100240000F931F93DF93CF93CDB7DEB729970FB6E8
:10025000F894DEBF0FBECDBF9F838E8379876887FA
:10026000888599853BDF8C018885998570DF21E041
:100270000817190709F020E0222311F08FEF2BC097
:10028000888599851BDF9C838B83888599855FDFB3
:100290002B813C81820F931FFC0180818D83888597
:1002A000998555DF01969A838983888599853FDFF3
:1002B0009C0141E089819A81821793070CF440E008
:1002C000442311F01A8219828885998529813A81FF
:1002D000B9014EDF8D8129960FB6F894DEBF0FBEAF
:1002E000CDBFCF91DF911F910F910895DF93CF93F1
:1002F000CDB7DEB729970FB6F894DEBF0FBECDBFDE
:100300009E838D8378876F8349878F819885E6DE0A
:1003100001969A8389838F81988509DF9C0141E04A
:1003200089819A81821793070CF440E0442311F0ED
:100330001A8219828F8198850ADF9C0141E08981A8
:100340009A812817390709F040E0442319F08FEF0C
:100350009FEF17C08F819885B1DE9C838B838F813F
:100360009885BCDE2B813C81820F931F2985FC017F
:1003700020838F81988529813A81B901C0DE80E090
:1003800090E029960FB6F894DEBF0FBECDBFCF9197
:10039000DF910895DF93CF9300D000D0CDB7DEB7C3
:1003A0009A8389837C836B8389819A8181309105CB
:1003B00049F48B819C812FEF8F3F920719F484E2DF
:1003C00091E0FDDE89819A81009749F48B819C81BF
:1003D0002FEF8F3F920719F484E291E003DF0F9033
:1003E0000F900F900F90CF91DF910895DF93CF93EF
:1003F000CDB7DEB781E090E06FEF7FEFCBDFCF913D
:10040000DF910895DF93CF93CDB7DEB780E090E022
:100410006FEF7FEFBFDFCF91DF910895DF93CF9331
:1004200000D0CDB7DEB79A83898385EC90E0FC01DC
:10043000108284EC90E027E6FC01208382EC90E0BF
:1004400026E0FC01208381EC90E028E9FC01208378
:1004500083E290E023E2FC01208384E290E024E246
:10046000FC01208385E290E020E8FC0120830F90CE
:100470000F90CF91DF910895DF93CF93CDB7DEB783
:1004800086EC90E0FC0140818BE291E02BE231E0D0
:10049000B9012CDF21E0FFEF8F3F9F0709F020E03B
:1004A000222349F085E290E025E230E0F901208145
:1004B0002062FC012083CF91DF910895DF93CF93D9
:1004C0000F92CDB7DEB781E391E021E331E0B901CE
:1004D000B7DE898386EC90E02981FC01208381ECE2
:1004E00090E021EC30E0F90120812F7DFC01208398
:1004F0000F90CF91DF9108951F920F920FB60F9238
:1005000011242F933F934F935F936F937F938F9318
:100510009F93AF93BF93EF93FF93DF93CF93CDB7A9
:10052000DEB7AADFCF91DF91FF91EF91BF91AF913D
:100530009F918F917F916F915F914F913F912F91FB
:100540000F900FBE0F901F9018951F920F920FB62D
:100550000F9211242F933F934F935F936F937F9349
:100560008F939F93AF93BF93EF93FF93DF93CF93BB
:10057000CDB7DEB7A3DFCF91DF91FF91EF91BF91B0
:10058000AF919F918F917F916F915F914F913F912B
:100590002F910F900FBE0F901F901895DF93CF9360
:1005A000CDB7DEB77894CF91DF910895DF93CF93E5
:1005B00000D000D0CDB7DEB79A8389837C836B836C
:1005C00089819A818130910579F48B819C812FEF0B
:1005D0008F3F920749F48AE291E020DF8BE291E0BD
:1005E000EEDD81E391E0EBDD89819A81009761F492
:1005F0008B819C812FEF8F3F920731F481E391E053
:10060000F1DD8BE291E0EEDD0F900F900F900F90F7
:10061000CF91DF910895DF93CF93CDB7DEB781E01F
:1006200090E06FEF7FEFC2DFCF91DF910895DF930E
:10063000CF93CDB7DEB780E090E06FEF7FEFB6DF0E
:10064000CF91DF910895DF93CF9300D0CDB7DEB780
:1006500089836A8386EC90E02A81FC01208386EC02
:1006600090E0FC01408181E391E021E331E0B901B8
:100670003DDE0F900F90CF91DF910895DF93CF93E0
:1006800000D0CDB7DEB78A838BE291E021E331E081
:10069000B901D6DD89830F900F90CF91DF91089536
:1006A0000F931F93DF93CF9300D0CDB7DEB7CE016A
:1006B0000296B4DE73DF198268E7C5DF06EC10E04E
:1006C000DDDFF80180836AE7BEDF06EC10E0D6DFED
:1006D000F801808367E7B7DF06EC10E0CFDFF801B1
:1006E000808364E7B0DF06EC10E0C8DFF8018083A8
:1006F00001C000008BE291E02ADD8C018BE291E0E9
:10070000EDDC21E00817190709F420E0222389F322
:1007100081EC90E021EC30E0F90120812062FC01C5
:1007200020838BE291E02BE231E0B90189DD482F93
:1007300081E391E021E331E0B901D8DDDBCFEE0FB9
:10074000FF1F0590F491E02D0994CF93DF93823041
:10075000910510F482E090E0E0913901F0913A01C6
:1007600040E050E020E030E026C0608171816817F1
:100770007907E0F06817790781F482819381211568
:10078000310531F0D90113969C938E9312972BC0AB
:1007900090933A018093390126C04115510519F013
:1007A0006417750718F4AB01E901DF019F0172813D
:1007B0006381E72FF62F3097C1F64115510501F1FE
:1007C000481B590B4430510580F412968D919C9131
:1007D0001397209719F09B838A8304C090933A0162
:1007E00080933901FD01329646C0FD01E40FF51FEB
:1007F000819391934250504011965C934E933BC02D
:1008000020913701309138012115310541F42091B3
:100810000201309103013093380120933701209178
:100820000401309105012115310541F42DB73EB782
:100830004091000150910101241B350BE0913701DB
:10084000F0913801E217F307A0F42E1B3F0B281795
:10085000390778F0AC014E5F5F4F2417350748F039
:100860004E0F5F1F5093380140933701819391934E
:1008700002C0E0E0F0E0CF01DF91CF910895CF9387
:10088000DF93009709F491C0FC0132971382128222
:100890006091390170913A016115710581F42081EF
:1008A0003181280F391F80913701909138018217CB
:1008B000930799F5F0933801E093370176C0DB0197
:1008C00080E090E002C0CD01D901AE17BF0748F427
:1008D00012962D913C91139721153105A1F7CD0169
:1008E00021C0B383A283EF01499159919E01240F46
:1008F000351FA217B30779F42D913C911197240F5E
:10090000351F2E5F3F4F3183208312962D913C91EE
:10091000139733832283009729F4F0933A01E093ED
:10092000390143C0DC011396FC93EE9312974D916D
:100930005D91A40FB51FEA17FB0769F4208131818F
:10094000240F351F2E5F3F4FEC013983288322810E
:1009500033813B832A83E0E0F0E002C0FB01BC016D
:10096000DB0112968D919C9113970097B9F79B012B
:100970002E5F3F4F8D919C911197820F931F409155
:100980003701509138014817590779F4309729F405
:1009900010923A011092390102C013821282225041
:1009A00030403093380120933701DF91CF91089583
:1009B00010E0CCE6D0E003C0FE01C3DE2296C037D3
:0809C000D107D1F7F894FFCF35
:1009C80020003B01000000000000000000000000C3
:1009D800000000000000000000000A000000000005
:0409E800F2000E010A
:00000001FF
